:100000000C9434000C9446000C9446000C9446006A
:100010000C9446000C9446000C9446000C94460048
:100020000C9446000C9446000C9446000C94460038
:100030000C9446000C9446000C9446000C94460028
:100040000C9446000C9446000C9446000C94460018
:100050000C9446000C9446000C9446000C94460008
:100060000C9446000C94460011241FBECFEFD8E03C
:10007000DEBFCDBF21E0A0E0B1E001C01D92A23003
:10008000B207E1F70E9448000C9477000C9400003E
:1000900014B815B810920101109200019FEF8091E1
:1000A00001018A30A8F48F5F809301012091000143
:1000B00040E1249F90011124822B85B98FE32DE02C
:1000C00033E0815020403040E1F700C00000E7CF2E
:1000D00010920101809100018F5F809300018630B2
:1000E000F1F695B9809100018630D9F3D8CFF89414
:0200F000FFCF40
:00000001FF
