:020000020000FC
:0200000004C03A
:0200040010C02A
:1000080023C078940FEF04B95A9A5B9A18E00DBF91
:100018001EBF23E02DBB3FE030936900FFCF4FE3C5
:1000280045B927D046E045B924D04BE545B921D09C
:100038004FE445B91ED046E645B91BD04DE645B953
:1000480018D040E045B918954DE645B912D046E6B6
:1000580045B90FD04FE445B90CD04BE545B909D0A7
:1000680046E045B906D04FE345B903D040E045B96D
:10007800189553E06AE874E57A95F1F76A95E1F71F
:080088005A95D1F7000008951C
:00000001FF
