:100000000C9434000C9446000C9446000C9446006A
:100010000C9446000C9446000C9446000C94460048
:100020000C9446000C9446000C9446000C94460038
:100030000C9446000C9446000C9446000C94460028
:100040000C9446000C9446000C9446000C94460018
:100050000C9446000C9446000C9446000C94460008
:100060000C9446000C94460011241FBECFEFD8E03C
:10007000DEBFCDBF21E0A0E0B1E001C01D92A23003
:10008000B207E1F70E9448000C94A4000C94000011
:100090008FEF84B987B915B818B862E021E034E071
:1000A000A3E0B0E0E2E0F0E041E050E08091000148
:1000B00090910101009781F425B938B97FE38DE073
:1000C00093E0715080409040E1F700C000005093F1
:1000D000010140930001EACF8130910581F425B9F7
:1000E00068B97FE58AEE90E0715080409040E1F77A
:1000F00000C00000F0930101E0930001D7CF8230EF
:10010000910581F435B928B97FE38DE093E0715012
:1001100080409040E1F700C00000B0930101A0933F
:100120000001C4CF039711F665B928B97FE58AEEBF
:1001300090E0715080409040E1F700C000001092C4
:0C014000010110920001B2CFF894FFCF33
:00000001FF
